{
  "contractName": "Meme",
  "abi": [
    {
      "constant": true,
      "inputs": [],
      "name": "fileCount",
      "outputs": [
        {
          "name": "",
          "type": "uint256"
        }
      ],
      "payable": false,
      "stateMutability": "view",
      "type": "function",
      "signature": "0x43953519"
    },
    {
      "constant": true,
      "inputs": [
        {
          "name": "",
          "type": "uint256"
        }
      ],
      "name": "files",
      "outputs": [
        {
          "name": "count",
          "type": "uint256"
        },
        {
          "name": "id",
          "type": "string"
        },
        {
          "name": "memeHash",
          "type": "string"
        },
        {
          "name": "name",
          "type": "string"
        },
        {
          "name": "ftype",
          "type": "string"
        },
        {
          "name": "fsize",
          "type": "string"
        },
        {
          "name": "lastViewedBy",
          "type": "string"
        },
        {
          "name": "email",
          "type": "string"
        }
      ],
      "payable": false,
      "stateMutability": "view",
      "type": "function",
      "signature": "0xf4c714b4"
    },
    {
      "anonymous": false,
      "inputs": [
        {
          "indexed": false,
          "name": "count",
          "type": "uint256"
        },
        {
          "indexed": false,
          "name": "id",
          "type": "string"
        },
        {
          "indexed": false,
          "name": "memeHash",
          "type": "string"
        },
        {
          "indexed": false,
          "name": "name",
          "type": "string"
        },
        {
          "indexed": false,
          "name": "ftype",
          "type": "string"
        },
        {
          "indexed": false,
          "name": "fsize",
          "type": "string"
        },
        {
          "indexed": false,
          "name": "lastViewedBy",
          "type": "string"
        },
        {
          "indexed": false,
          "name": "email",
          "type": "string"
        }
      ],
      "name": "FileCreated",
      "type": "event",
      "signature": "0xa915b57bb1a524a6a87648263ef2a11d02bdbc87f74e6c9d32ceba0c8e1cdeae"
    },
    {
      "constant": false,
      "inputs": [
        {
          "name": "_memeHash",
          "type": "string"
        }
      ],
      "name": "set",
      "outputs": [],
      "payable": false,
      "stateMutability": "nonpayable",
      "type": "function",
      "signature": "0x4ed3885e"
    },
    {
      "constant": false,
      "inputs": [
        {
          "name": "_id",
          "type": "string"
        },
        {
          "name": "_memeHash",
          "type": "string"
        },
        {
          "name": "_name",
          "type": "string"
        },
        {
          "name": "_ftype",
          "type": "string"
        },
        {
          "name": "_fsize",
          "type": "string"
        },
        {
          "name": "_lastViewedBy",
          "type": "string"
        },
        {
          "name": "_email",
          "type": "string"
        }
      ],
      "name": "createFile",
      "outputs": [],
      "payable": false,
      "stateMutability": "nonpayable",
      "type": "function",
      "signature": "0x41151e1c"
    },
    {
      "constant": false,
      "inputs": [
        {
          "name": "_id",
          "type": "uint256"
        },
        {
          "name": "_uid",
          "type": "string"
        },
        {
          "name": "_email",
          "type": "string"
        }
      ],
      "name": "getHash",
      "outputs": [
        {
          "components": [
            {
              "name": "count",
              "type": "uint256"
            },
            {
              "name": "id",
              "type": "string"
            },
            {
              "name": "memeHash",
              "type": "string"
            },
            {
              "name": "name",
              "type": "string"
            },
            {
              "name": "ftype",
              "type": "string"
            },
            {
              "name": "fsize",
              "type": "string"
            },
            {
              "name": "lastViewedBy",
              "type": "string"
            },
            {
              "name": "email",
              "type": "string"
            }
          ],
          "name": "",
          "type": "tuple"
        }
      ],
      "payable": false,
      "stateMutability": "nonpayable",
      "type": "function",
      "signature": "0x6f1b553c"
    },
    {
      "constant": true,
      "inputs": [],
      "name": "get",
      "outputs": [
        {
          "name": "",
          "type": "string"
        }
      ],
      "payable": false,
      "stateMutability": "view",
      "type": "function",
      "signature": "0x6d4ce63c"
    },
    {
      "constant": true,
      "inputs": [],
      "name": "getAll",
      "outputs": [
        {
          "components": [
            {
              "name": "count",
              "type": "uint256"
            },
            {
              "name": "id",
              "type": "string"
            },
            {
              "name": "memeHash",
              "type": "string"
            },
            {
              "name": "name",
              "type": "string"
            },
            {
              "name": "ftype",
              "type": "string"
            },
            {
              "name": "fsize",
              "type": "string"
            },
            {
              "name": "lastViewedBy",
              "type": "string"
            },
            {
              "name": "email",
              "type": "string"
            }
          ],
          "name": "",
          "type": "tuple[]"
        }
      ],
      "payable": false,
      "stateMutability": "view",
      "type": "function",
      "signature": "0x53ed5143"
    }
  ],
  "bytecode": "0x6080604052600060015534801561001557600080fd5b50611d72806100256000396000f3fe608060405260043610610083576000357c0100000000000000000000000000000000000000000000000000000000900463ffffffff16806341151e1c1461008857806343953519146100b15780634ed3885e146100dc57806353ed5143146101055780636d4ce63c146101305780636f1b553c1461015b578063f4c714b414610198575b600080fd5b34801561009457600080fd5b506100af60048036036100aa91908101906115d3565b6101dc565b005b3480156100bd57600080fd5b506100c6610368565b6040516100d39190611ac4565b60405180910390f35b3480156100e857600080fd5b5061010360048036036100fe9190810190611592565b61036e565b005b34801561011157600080fd5b5061011a610388565b6040516101279190611a5e565b60405180910390f35b34801561013c57600080fd5b506101456108a7565b6040516101529190611a80565b60405180910390f35b34801561016757600080fd5b50610182600480360361017d9190810190611742565b610949565b60405161018f9190611aa2565b60405180910390f35b3480156101a457600080fd5b506101bf60048036036101ba9190810190611719565b610e80565b6040516101d3989796959493929190611b8e565b60405180910390f35b600160008154809291906001019190505550610100604051908101604052806001548152602001888152602001878152602001868152602001858152602001848152602001838152602001828152506002600060015481526020019081526020016000206000820151816000015560208201518160010190805190602001906102669291906112f0565b5060408201518160020190805190602001906102839291906112f0565b5060608201518160030190805190602001906102a09291906112f0565b5060808201518160040190805190602001906102bd9291906112f0565b5060a08201518160050190805190602001906102da9291906112f0565b5060c08201518160060190805190602001906102f79291906112f0565b5060e08201518160070190805190602001906103149291906112f0565b509050507fa915b57bb1a524a6a87648263ef2a11d02bdbc87f74e6c9d32ceba0c8e1cdeae60015488888888888888604051610357989796959493929190611adf565b60405180910390a150505050505050565b60015481565b8060009080519060200190610384929190611370565b5050565b60608060018054016040519080825280602002602001820160405280156103c957816020015b6103b66113f0565b8152602001906001900390816103ae5790505b5090506000600190505b600180540181101561089f5760026000828152602001908152602001600020610100604051908101604052908160008201548152602001600182018054600181600116156101000203166002900480601f0160208091040260200160405190810160405280929190818152602001828054600181600116156101000203166002900480156104a25780601f10610477576101008083540402835291602001916104a2565b820191906000526020600020905b81548152906001019060200180831161048557829003601f168201915b50505050508152602001600282018054600181600116156101000203166002900480601f0160208091040260200160405190810160405280929190818152602001828054600181600116156101000203166002900480156105445780601f1061051957610100808354040283529160200191610544565b820191906000526020600020905b81548152906001019060200180831161052757829003601f168201915b50505050508152602001600382018054600181600116156101000203166002900480601f0160208091040260200160405190810160405280929190818152602001828054600181600116156101000203166002900480156105e65780601f106105bb576101008083540402835291602001916105e6565b820191906000526020600020905b8154815290600101906020018083116105c957829003601f168201915b50505050508152602001600482018054600181600116156101000203166002900480601f0160208091040260200160405190810160405280929190818152602001828054600181600116156101000203166002900480156106885780601f1061065d57610100808354040283529160200191610688565b820191906000526020600020905b81548152906001019060200180831161066b57829003601f168201915b50505050508152602001600582018054600181600116156101000203166002900480601f01602080910402602001604051908101604052809291908181526020018280546001816001161561010002031660029004801561072a5780601f106106ff5761010080835404028352916020019161072a565b820191906000526020600020905b81548152906001019060200180831161070d57829003601f168201915b50505050508152602001600682018054600181600116156101000203166002900480601f0160208091040260200160405190810160405280929190818152602001828054600181600116156101000203166002900480156107cc5780601f106107a1576101008083540402835291602001916107cc565b820191906000526020600020905b8154815290600101906020018083116107af57829003601f168201915b50505050508152602001600782018054600181600116156101000203166002900480601f01602080910402602001604051908101604052809291908181526020018280546001816001161561010002031660029004801561086e5780601f106108435761010080835404028352916020019161086e565b820191906000526020600020905b81548152906001019060200180831161085157829003601f168201915b505050505081525050828281518110151561088557fe5b9060200190602002018190525080806001019150506103d3565b508091505090565b606060008054600181600116156101000203166002900480601f01602080910402602001604051908101604052809291908181526020018280546001816001161561010002031660029004801561093f5780601f106109145761010080835404028352916020019161093f565b820191906000526020600020905b81548152906001019060200180831161092257829003601f168201915b5050505050905090565b610951611436565b8260026000868152602001908152602001600020600601908051906020019061097b929190611370565b50816002600086815260200190815260200160002060070190805190602001906109a6929190611370565b5060026000858152602001908152602001600020600201600090805460018160011615610100020316600290046109de92919061147c565b5060026000858152602001908152602001600020610100604051908101604052908160008201548152602001600182018054600181600116156101000203166002900480601f016020809104026020016040519081016040528092919081815260200182805460018160011615610100020316600290048015610aa25780601f10610a7757610100808354040283529160200191610aa2565b820191906000526020600020905b815481529060010190602001808311610a8557829003601f168201915b50505050508152602001600282018054600181600116156101000203166002900480601f016020809104026020016040519081016040528092919081815260200182805460018160011615610100020316600290048015610b445780601f10610b1957610100808354040283529160200191610b44565b820191906000526020600020905b815481529060010190602001808311610b2757829003601f168201915b50505050508152602001600382018054600181600116156101000203166002900480601f016020809104026020016040519081016040528092919081815260200182805460018160011615610100020316600290048015610be65780601f10610bbb57610100808354040283529160200191610be6565b820191906000526020600020905b815481529060010190602001808311610bc957829003601f168201915b50505050508152602001600482018054600181600116156101000203166002900480601f016020809104026020016040519081016040528092919081815260200182805460018160011615610100020316600290048015610c885780601f10610c5d57610100808354040283529160200191610c88565b820191906000526020600020905b815481529060010190602001808311610c6b57829003601f168201915b50505050508152602001600582018054600181600116156101000203166002900480601f016020809104026020016040519081016040528092919081815260200182805460018160011615610100020316600290048015610d2a5780601f10610cff57610100808354040283529160200191610d2a565b820191906000526020600020905b815481529060010190602001808311610d0d57829003601f168201915b50505050508152602001600682018054600181600116156101000203166002900480601f016020809104026020016040519081016040528092919081815260200182805460018160011615610100020316600290048015610dcc5780601f10610da157610100808354040283529160200191610dcc565b820191906000526020600020905b815481529060010190602001808311610daf57829003601f168201915b50505050508152602001600782018054600181600116156101000203166002900480601f016020809104026020016040519081016040528092919081815260200182805460018160011615610100020316600290048015610e6e5780601f10610e4357610100808354040283529160200191610e6e565b820191906000526020600020905b815481529060010190602001808311610e5157829003601f168201915b50505050508152505090509392505050565b6002602052806000526040600020600091509050806000015490806001018054600181600116156101000203166002900480601f016020809104026020016040519081016040528092919081815260200182805460018160011615610100020316600290048015610f325780601f10610f0757610100808354040283529160200191610f32565b820191906000526020600020905b815481529060010190602001808311610f1557829003601f168201915b505050505090806002018054600181600116156101000203166002900480601f016020809104026020016040519081016040528092919081815260200182805460018160011615610100020316600290048015610fd05780601f10610fa557610100808354040283529160200191610fd0565b820191906000526020600020905b815481529060010190602001808311610fb357829003601f168201915b505050505090806003018054600181600116156101000203166002900480601f01602080910402602001604051908101604052809291908181526020018280546001816001161561010002031660029004801561106e5780601f106110435761010080835404028352916020019161106e565b820191906000526020600020905b81548152906001019060200180831161105157829003601f168201915b505050505090806004018054600181600116156101000203166002900480601f01602080910402602001604051908101604052809291908181526020018280546001816001161561010002031660029004801561110c5780601f106110e15761010080835404028352916020019161110c565b820191906000526020600020905b8154815290600101906020018083116110ef57829003601f168201915b505050505090806005018054600181600116156101000203166002900480601f0160208091040260200160405190810160405280929190818152602001828054600181600116156101000203166002900480156111aa5780601f1061117f576101008083540402835291602001916111aa565b820191906000526020600020905b81548152906001019060200180831161118d57829003601f168201915b505050505090806006018054600181600116156101000203166002900480601f0160208091040260200160405190810160405280929190818152602001828054600181600116156101000203166002900480156112485780601f1061121d57610100808354040283529160200191611248565b820191906000526020600020905b81548152906001019060200180831161122b57829003601f168201915b505050505090806007018054600181600116156101000203166002900480601f0160208091040260200160405190810160405280929190818152602001828054600181600116156101000203166002900480156112e65780601f106112bb576101008083540402835291602001916112e6565b820191906000526020600020905b8154815290600101906020018083116112c957829003601f168201915b5050505050905088565b828054600181600116156101000203166002900490600052602060002090601f016020900481019282601f1061133157805160ff191683800117855561135f565b8280016001018555821561135f579182015b8281111561135e578251825591602001919060010190611343565b5b50905061136c9190611503565b5090565b828054600181600116156101000203166002900490600052602060002090601f016020900481019282601f106113b157805160ff19168380011785556113df565b828001600101855582156113df579182015b828111156113de5782518255916020019190600101906113c3565b5b5090506113ec9190611503565b5090565b6101006040519081016040528060008152602001606081526020016060815260200160608152602001606081526020016060815260200160608152602001606081525090565b6101006040519081016040528060008152602001606081526020016060815260200160608152602001606081526020016060815260200160608152602001606081525090565b828054600181600116156101000203166002900490600052602060002090601f016020900481019282601f106114b557805485556114f2565b828001600101855582156114f257600052602060002091601f016020900482015b828111156114f15782548255916001019190600101906114d6565b5b5090506114ff9190611503565b5090565b61152591905b80821115611521576000816000905550600101611509565b5090565b90565b600082601f830112151561153b57600080fd5b813561154e61154982611c6a565b611c3d565b9150808252602083016020830185838301111561156a57600080fd5b611575838284611ce5565b50505092915050565b600061158a8235611cdb565b905092915050565b6000602082840312156115a457600080fd5b600082013567ffffffffffffffff8111156115be57600080fd5b6115ca84828501611528565b91505092915050565b600080600080600080600060e0888a0312156115ee57600080fd5b600088013567ffffffffffffffff81111561160857600080fd5b6116148a828b01611528565b975050602088013567ffffffffffffffff81111561163157600080fd5b61163d8a828b01611528565b965050604088013567ffffffffffffffff81111561165a57600080fd5b6116668a828b01611528565b955050606088013567ffffffffffffffff81111561168357600080fd5b61168f8a828b01611528565b945050608088013567ffffffffffffffff8111156116ac57600080fd5b6116b88a828b01611528565b93505060a088013567ffffffffffffffff8111156116d557600080fd5b6116e18a828b01611528565b92505060c088013567ffffffffffffffff8111156116fe57600080fd5b61170a8a828b01611528565b91505092959891949750929550565b60006020828403121561172b57600080fd5b60006117398482850161157e565b91505092915050565b60008060006060848603121561175757600080fd5b60006117658682870161157e565b935050602084013567ffffffffffffffff81111561178257600080fd5b61178e86828701611528565b925050604084013567ffffffffffffffff8111156117ab57600080fd5b6117b786828701611528565b9150509250925092565b60006117cc82611ca3565b808452602084019350836020820285016117e585611c96565b60005b8481101561181e578383038852611800838351611975565b925061180b82611cc4565b91506020880197506001810190506117e8565b508196508694505050505092915050565b600061183a82611cb9565b80845261184e816020860160208601611cf4565b61185781611d27565b602085010191505092915050565b600061187082611cae565b808452611884816020860160208601611cf4565b61188d81611d27565b602085010191505092915050565b6000610100830160008301516118b46000860182611a4f565b50602083015184820360208601526118cc8282611865565b915050604083015184820360408601526118e68282611865565b915050606083015184820360608601526119008282611865565b9150506080830151848203608086015261191a8282611865565b91505060a083015184820360a08601526119348282611865565b91505060c083015184820360c086015261194e8282611865565b91505060e083015184820360e08601526119688282611865565b9150508091505092915050565b60006101008301600083015161198e6000860182611a4f565b50602083015184820360208601526119a68282611865565b915050604083015184820360408601526119c08282611865565b915050606083015184820360608601526119da8282611865565b915050608083015184820360808601526119f48282611865565b91505060a083015184820360a0860152611a0e8282611865565b91505060c083015184820360c0860152611a288282611865565b91505060e083015184820360e0860152611a428282611865565b9150508091505092915050565b611a5881611cd1565b82525050565b60006020820190508181036000830152611a7881846117c1565b905092915050565b60006020820190508181036000830152611a9a818461182f565b905092915050565b60006020820190508181036000830152611abc818461189b565b905092915050565b6000602082019050611ad96000830184611a4f565b92915050565b600061010082019050611af5600083018b611a4f565b8181036020830152611b07818a61182f565b90508181036040830152611b1b818961182f565b90508181036060830152611b2f818861182f565b90508181036080830152611b43818761182f565b905081810360a0830152611b57818661182f565b905081810360c0830152611b6b818561182f565b905081810360e0830152611b7f818461182f565b90509998505050505050505050565b600061010082019050611ba4600083018b611a4f565b8181036020830152611bb6818a611865565b90508181036040830152611bca8189611865565b90508181036060830152611bde8188611865565b90508181036080830152611bf28187611865565b905081810360a0830152611c068186611865565b905081810360c0830152611c1a8185611865565b905081810360e0830152611c2e8184611865565b90509998505050505050505050565b6000604051905081810181811067ffffffffffffffff82111715611c6057600080fd5b8060405250919050565b600067ffffffffffffffff821115611c8157600080fd5b601f19601f8301169050602081019050919050565b6000602082019050919050565b600081519050919050565b600081519050919050565b600081519050919050565b6000602082019050919050565b6000819050919050565b6000819050919050565b82818337600083830152505050565b60005b83811015611d12578082015181840152602081019050611cf7565b83811115611d21576000848401525b50505050565b6000601f19601f830116905091905056fea265627a7a72305820d55f2ec628d1c37cc0b7bdb8e157139942c0fbd2589829ff56e4c667969c3bf36c6578706572696d656e74616cf50037",
  "source": "\npragma solidity ^0.5.0;\npragma experimental ABIEncoderV2;\n\ncontract Meme {\n\n string memeHash;\n\n  function set(string memory _memeHash) public {\n    memeHash = _memeHash;\n  }\n\n  uint public fileCount = 0;\n\n  struct File {\n    uint count;\n    string id;\n    string memeHash;\n    string name;\n    string ftype;\n    string fsize;\n    string lastViewedBy;\n    string email;\n  }\n\n  mapping(uint => File) public files;\n\n  event FileCreated(\n    uint count,\n    string id,\n    string memeHash,\n    string name,\n    string ftype,\n    string fsize,\n    string lastViewedBy,\n    string email\n  );\n\n  // event FileRead(\n  //   uint id,\n  //   File file,\n  //   string uid\n  // );\n\n  function createFile(string memory _id,string memory _memeHash, string memory _name, string memory _ftype, string memory _fsize, string memory _lastViewedBy, string memory _email) public {\n    fileCount ++;\n    files[fileCount] = File(fileCount, _id, _memeHash, _name, _ftype, _fsize, _lastViewedBy, _email);\n    emit FileCreated(fileCount, _id, _memeHash, _name, _ftype, _fsize, _lastViewedBy, _email);\n  }\n\n  function getHash(uint _id, string memory _uid, string memory _email) public returns (File memory){  \n    files[_id].lastViewedBy = _uid;\n    files[_id].email = _email;\n    memeHash = files[_id].memeHash;\n    // emit FileRead(_id, files[_id], _uid);\n    return files[_id];\n  }\n\n  function get() public view returns (string memory) {\n    return memeHash;\n  }\n\n  // function getAll() public view returns (File[] memory) {\n  //   File[] memory tfiles = new File[](fileCount);\n  //   for (uint i = 0; i < fileCount; i++) {\n  //     File storage tfile = files[i];\n  //     tfiles[i] = tfile;\n  //   }\n  //   return tfiles;\n  // }\n\n  function getAll() public view returns (File[] memory){\n    File[] memory ret = new File[](fileCount+1);\n    for (uint i = 1; i < fileCount+1; i++) {\n        ret[i] = files[i];\n    }\n    return ret;\n  }\n}\n",
  "sourcePath": "/Users/ferran/Documents/Dev/dss/src/contracts/Meme.sol",
  "compiler": {
    "name": "solc",
    "version": "0.5.0+commit.1d4f565a.Emscripten.clang"
  },
  "schemaVersion": "3.0.2",
  "updatedAt": "2021-04-07T07:09:11.382Z",
  "devdoc": {
    "methods": {}
  },
  "userdoc": {
    "methods": {}
  }
}